{
  "transactions": [
    {
      "hash": "0xed29ca199ac262428a9881797bde0653c290709c4fe4fdfe541262d22b08cc7e",
      "transactionType": "CALL",
      "contractName": "AvaxCoins",
      "contractAddress": "0xCa9F4A29Fc0076A9Fd643B549Fc760995b47E6f8",
      "function": "AirDrop(address[],uint256[][])",
      "arguments": [
        "[0x42C7eF198f8aC9888E2B1b73e5B71f1D4535194A]",
        "[[1]]"
      ],
      "transaction": {
        "type": "0x02",
        "from": "0x42c7ef198f8ac9888e2b1b73e5b71f1d4535194a",
        "to": "0xca9f4a29fc0076a9fd643b549fc760995b47e6f8",
        "gas": "0x188c4",
        "value": "0x0",
        "data": "0x4309d9d300000000000000000000000000000000000000000000000000000000000000400000000000000000000000000000000000000000000000000000000000000080000000000000000000000000000000000000000000000000000000000000000100000000000000000000000042c7ef198f8ac9888e2b1b73e5b71f1d4535194a0000000000000000000000000000000000000000000000000000000000000001000000000000000000000000000000000000000000000000000000000000002000000000000000000000000000000000000000000000000000000000000000010000000000000000000000000000000000000000000000000000000000000001",
        "nonce": "0x2",
        "accessList": []
      },
      "additionalContracts": [],
      "isFixedGasLimit": false
    }
  ],
  "receipts": [
    {
      "transactionHash": "0xed29ca199ac262428a9881797bde0653c290709c4fe4fdfe541262d22b08cc7e",
      "transactionIndex": "0x0",
      "blockHash": "0x58b4344f144348b6fa5cd3f23f2bd082a18f48ca97bef48da6c5d73784d1ec8a",
      "blockNumber": "0x1ba0740",
      "from": "0x42C7eF198f8aC9888E2B1b73e5B71f1D4535194A",
      "to": "0xCa9F4A29Fc0076A9Fd643B549Fc760995b47E6f8",
      "cumulativeGasUsed": "0x11c5c",
      "gasUsed": "0x11c5c",
      "contractAddress": null,
      "logs": [
        {
          "address": "0xCa9F4A29Fc0076A9Fd643B549Fc760995b47E6f8",
          "topics": [
            "0xddf252ad1be2c89b69c2b068fc378daa952ba7f163c4a11628f55a4df523b3ef",
            "0x0000000000000000000000000000000000000000000000000000000000000000",
            "0x00000000000000000000000042c7ef198f8ac9888e2b1b73e5b71f1d4535194a",
            "0x0000000000000000000000000000000000000000000000000000000000000001"
          ],
          "data": "0x",
          "blockHash": "0x58b4344f144348b6fa5cd3f23f2bd082a18f48ca97bef48da6c5d73784d1ec8a",
          "blockNumber": "0x1ba0740",
          "transactionHash": "0xed29ca199ac262428a9881797bde0653c290709c4fe4fdfe541262d22b08cc7e",
          "transactionIndex": "0x0",
          "logIndex": "0x0",
          "removed": false
        }
      ],
      "status": "0x1",
      "logsBloom": "0x00000000000000000000000000000000000000000000000000000000000000000000000000000000000000000000000000000000000000000000000000040000000000000000000100000008000000000000000200040000000000000000000000000000020000000000000000000800001000000000000000000010000000000000000000000000000000000000000000000000000000000000000000000000000000000000000000800000000000000000000000000000000000000000000000000002000000000000000000000000000000000000000000001000000060000000000000000000000000000400000000000000000000000000000000000000",
      "type": "0x2",
      "effectiveGasPrice": "0x684ee1800"
    }
  ],
  "libraries": [],
  "pending": [],
  "returns": {},
  "timestamp": 1703983058,
  "chain": 43113,
  "multi": false,
  "commit": "89f7198"
}