{
  "transactions": [
    {
      "hash": "0xacad1aef7ac01fdcc83c134e4f04efb0a057470c721a2feaa2b7544d039f9129",
      "transactionType": "CALL",
      "contractName": "AvaxCoins",
      "contractAddress": "0xEB038a2E05b18B31a8f6F74AB3BdB287A083478E",
      "function": "AirDrop(address[],uint256[][])",
      "arguments": [
        "[0x42C7eF198f8aC9888E2B1b73e5B71f1D4535194A]",
        "[[1]]"
      ],
      "transaction": {
        "type": "0x02",
        "from": "0x42c7ef198f8ac9888e2b1b73e5b71f1d4535194a",
        "to": "0xeb038a2e05b18b31a8f6f74ab3bdb287a083478e",
        "gas": "0x1a000",
        "value": "0x0",
        "data": "0x4309d9d300000000000000000000000000000000000000000000000000000000000000400000000000000000000000000000000000000000000000000000000000000080000000000000000000000000000000000000000000000000000000000000000100000000000000000000000042c7ef198f8ac9888e2b1b73e5b71f1d4535194a0000000000000000000000000000000000000000000000000000000000000001000000000000000000000000000000000000000000000000000000000000002000000000000000000000000000000000000000000000000000000000000000010000000000000000000000000000000000000000000000000000000000000001",
        "nonce": "0x4",
        "accessList": []
      },
      "additionalContracts": [],
      "isFixedGasLimit": false
    }
  ],
  "receipts": [],
  "libraries": [],
  "pending": [
    "0xacad1aef7ac01fdcc83c134e4f04efb0a057470c721a2feaa2b7544d039f9129"
  ],
  "returns": {},
  "timestamp": 1704042623,
  "chain": 43113,
  "multi": false,
  "commit": "39234c4"
}