{
  "transactions": [
    {
      "hash": "0xed29ca199ac262428a9881797bde0653c290709c4fe4fdfe541262d22b08cc7e",
      "transactionType": "CALL",
      "contractName": "AvaxCoins",
      "contractAddress": "0xCa9F4A29Fc0076A9Fd643B549Fc760995b47E6f8",
      "function": "AirDrop(address[],uint256[][])",
      "arguments": [
        "[0x42C7eF198f8aC9888E2B1b73e5B71f1D4535194A]",
        "[[1]]"
      ],
      "transaction": {
        "type": "0x02",
        "from": "0x42c7ef198f8ac9888e2b1b73e5b71f1d4535194a",
        "to": "0xca9f4a29fc0076a9fd643b549fc760995b47e6f8",
        "gas": "0x188c4",
        "value": "0x0",
        "data": "0x4309d9d300000000000000000000000000000000000000000000000000000000000000400000000000000000000000000000000000000000000000000000000000000080000000000000000000000000000000000000000000000000000000000000000100000000000000000000000042c7ef198f8ac9888e2b1b73e5b71f1d4535194a0000000000000000000000000000000000000000000000000000000000000001000000000000000000000000000000000000000000000000000000000000002000000000000000000000000000000000000000000000000000000000000000010000000000000000000000000000000000000000000000000000000000000001",
        "nonce": "0x2",
        "accessList": []
      },
      "additionalContracts": [],
      "isFixedGasLimit": false
    }
  ],
  "receipts": [],
  "libraries": [],
  "pending": [
    "0xed29ca199ac262428a9881797bde0653c290709c4fe4fdfe541262d22b08cc7e"
  ],
  "returns": {},
  "timestamp": 1703983052,
  "chain": 43113,
  "multi": false,
  "commit": "89f7198"
}