{
  "transactions": [
    {
      "hash": "0xacad1aef7ac01fdcc83c134e4f04efb0a057470c721a2feaa2b7544d039f9129",
      "transactionType": "CALL",
      "contractName": "AvaxCoins",
      "contractAddress": "0xEB038a2E05b18B31a8f6F74AB3BdB287A083478E",
      "function": "AirDrop(address[],uint256[][])",
      "arguments": [
        "[0x42C7eF198f8aC9888E2B1b73e5B71f1D4535194A]",
        "[[1]]"
      ],
      "transaction": {
        "type": "0x02",
        "from": "0x42c7ef198f8ac9888e2b1b73e5b71f1d4535194a",
        "to": "0xeb038a2e05b18b31a8f6f74ab3bdb287a083478e",
        "gas": "0x1a000",
        "value": "0x0",
        "data": "0x4309d9d300000000000000000000000000000000000000000000000000000000000000400000000000000000000000000000000000000000000000000000000000000080000000000000000000000000000000000000000000000000000000000000000100000000000000000000000042c7ef198f8ac9888e2b1b73e5b71f1d4535194a0000000000000000000000000000000000000000000000000000000000000001000000000000000000000000000000000000000000000000000000000000002000000000000000000000000000000000000000000000000000000000000000010000000000000000000000000000000000000000000000000000000000000001",
        "nonce": "0x4",
        "accessList": []
      },
      "additionalContracts": [],
      "isFixedGasLimit": false
    }
  ],
  "receipts": [
    {
      "transactionHash": "0xacad1aef7ac01fdcc83c134e4f04efb0a057470c721a2feaa2b7544d039f9129",
      "transactionIndex": "0x0",
      "blockHash": "0x84feaedf58e3c0ee39bf1340e32a54ec22a591f9f8cdbb6dc9ebc05b0302b478",
      "blockNumber": "0x1ba3936",
      "from": "0x42C7eF198f8aC9888E2B1b73e5B71f1D4535194A",
      "to": "0xEB038a2E05b18B31a8f6F74AB3BdB287A083478E",
      "cumulativeGasUsed": "0x11c72",
      "gasUsed": "0x11c72",
      "contractAddress": null,
      "logs": [
        {
          "address": "0xEB038a2E05b18B31a8f6F74AB3BdB287A083478E",
          "topics": [
            "0xddf252ad1be2c89b69c2b068fc378daa952ba7f163c4a11628f55a4df523b3ef",
            "0x0000000000000000000000000000000000000000000000000000000000000000",
            "0x00000000000000000000000042c7ef198f8ac9888e2b1b73e5b71f1d4535194a",
            "0x0000000000000000000000000000000000000000000000000000000000000001"
          ],
          "data": "0x",
          "blockHash": "0x84feaedf58e3c0ee39bf1340e32a54ec22a591f9f8cdbb6dc9ebc05b0302b478",
          "blockNumber": "0x1ba3936",
          "transactionHash": "0xacad1aef7ac01fdcc83c134e4f04efb0a057470c721a2feaa2b7544d039f9129",
          "transactionIndex": "0x0",
          "logIndex": "0x0",
          "removed": false
        }
      ],
      "status": "0x1",
      "logsBloom": "0x00000000000000000000000000000000000000000000000000000810000000000000000000000000000000000000000000000000000000000000000000040000000000000000000100000008000000000000000000040000000000000000000000000000020000000000000000000800000000000000000000000010000000000000000000000000000000000000000000000000000000000000000000000000000000000000000000800000000000000000000000000000000000000000000000000002000000000000000000000000000000000000000000000000002060000000000000000000000000000400000000000000000000000000000000000000",
      "type": "0x2",
      "effectiveGasPrice": "0x684ee1800"
    }
  ],
  "libraries": [],
  "pending": [],
  "returns": {},
  "timestamp": 1704042629,
  "chain": 43113,
  "multi": false,
  "commit": "39234c4"
}